:100000000C942F1B0C94601B0C94601B0C94601BB5
:100010000C94601B0C94601B0C94601B0C94601B74
:100020000C94601B0C94601B0C94601B0C94601B64
:100030000C94601B0C94601B0C94601B0C94601B54
:100040000C94601B0C9493C30C94601B0C94601B69
:100050000C94601B0C94601B0C945BC00D94D240FC
:100060000C94601B0C94315B0C94275B0C94601B0C
:100070000C94601B0C94601B0C94601B0C94601B14
:100080000C944D530C94601B0C94601B0C94601BDF
:100090000C94601B0C94601B0C94601B0C94601BF4
:1000A0000C94601B0C94601B0C941F530C94601BED
:1000B0000C94601B0C94601B0C94601B0C94F1520C
:1000C0000C94601B0C94601B0C94601B0C9477CBFD
:1000D0000C944DCB0C94601B0C94601B0C94601B17
:1000E0000C94601BA91BF01BF61B1E1C2B1C341C44
:1000F0003F1CD026D927AF28DA28E635E635332A43
:10010000D22A122CE635E635C72EFA2F3330E635E3
:10011000FA31E635E635B332E635E6354333AC330E
:1001200028343C34F83443304B306F309330C73090
:10013000303144315D316A3177318B31E7316033B1
:10014000633366337C3383338A33A233645B765BF9
:10015000885B995BA15BD15BA55BD15BA95BAD5B68
:10016000D15BB15BB55BB95BC25BD15BCC5BB7D537
:10017000BED571D676D6CDD7D2D7E2D79101F701C9
:100180004901ED018B01A90199015D017501E501AD
:100190006101D101C101E301A9014F015701B5017D
:1001A000F5019D0177011702CF0179018F01DB0174
:1001B000C9014B019701FD015F01C5017901B10141
:1001C00059010102084AD73B3BCE016E84BCBFFDFA
:1001D000C12F3D6C74319ABD56833DDA3D00C77F17
:1001E00011BED9E4BB4C3E916BAAAABE00000080B0
:1001F0003F05A84CCDB2D44EB93836A9020C50B93F
:10020000918688083CA6AAAA2ABE000000803F0763
:10021000634236B79BD8A71A39685618AEBAAB55A1
:100220008C1D3CB7CC5763BD6DEDFD753EF6177266
:1002300031BF000000803F08000000BE9224491238
:100240003EABAAAA2ABECDCCCC4C3E00000080BE5C
:10025000ABAAAAAA3E00000000BF000000803F0039
:1002600000000000084178D3BB4387D1133D190E2D
:100270003CC3BD4282AD2B3E68EC8276BED98FE195
:10028000A93E4C80EFFFBE01C4FF7F3F000000008D
:1002900000000D94A03C0D942E400C946F300D94F2
:1002A000DB3C0C94D22A0C94F01B0C94AF280D94D8
:1002B000DF3C0D946F400C943F1C0D94B93C0D94A1
:1002C00051400D94C73C0C9476D60C9413CB0D94EE
:1002D000AD510C94CC5B0C9443330C94C7300C940C
:1002E000995B0C9444310C9443300D94BF3C0D94B5
:1002F000F63F0D9483400C94B15B0C94E6350C945E
:10030000C25B0C94C72E0C943C340C94B95B0C94D7
:1003100066330C9483330D94AA3C0C94B3320D9441
:1003200014400D94AE3C0C948A330C944B300D94D5
:1003300038400D94B53C0C94BDE20D94F13F0C9403
:10034000D15B0C946A310C94D3E30D94CB510C9493
:10035000B7D50D94E83C0C94122C0C94CBE20C9481
:1003600033300D9465400C94D2D70D94E33C0C943B
:10037000A91B0C94BED50C9477310C94D0260C9408
:10038000D9270D94D13C0C94A55B0D945B400C9443
:1003900086E30D9424400C94FA310C94A95B0D94DF
:1003A0000A400D94CD3C0C94B55B0C949AE20C94ED
:1003B00071D60C9463330D941C400C94341C0C9433
:1003C000F8340C94F61B0D94D53C0D94C33C0C945E
:1003D00028340C94AD5B0C947C330D94A43C0C94A9
:1003E000765B0C941E1C0C94A2330D94EC3F0D9480
:1003F000B13C0C945D310C948B310D9442400C94C3
:10040000E7310D9479400C94AC330C94885B0C94D8
:10041000A15B0C9430310C9493300C94E2D70C9483
:10042000645B0C94332A0C94A9E20C94DA280D94A2
:1004300000400C94CDD70C942B1C0C94FA2F0C94E8
:1004400060334E414E494E495459494E46CDCCCC6D
:100450003D0AD7233C17B7D13877CC2B329595E698
:10046000241FB14F0A000020410000C84200401C78
:100470004620BCBE4CCA1B0E5AAEC59D7400407AC5
:1004800010F35A00A0724E18090010A5D4E800001D
:10049000E87648170000E40B54020000CA9A3B00BB
:1004A0000000E1F505000080969800000040420F32
:1004B000000000A08601000000102700000000E8F6
:1004C00003000000006400000000000A00000000BB
:1004D000000100000000002C76D888DC674F08235C
:1004E000DFC1DFAE59E1B1B796E5E3E453C63AE6C2
:1004F00051997696E8E6C28426EB898C9B62ED40A2
:100500007C6FFCEFBC9C9F40F2BAA56FA5F49005F0
:100510005A2AF75C936B6CF9676DC11BFCE0E40D24
:1005200047FEF520E6B500D0ED902E030094357718
:10053000050080841E080000204E0A000000C80C40
:10054000333333330F986E12831141EF8D211489A9
:100550003BE65516CFFEE6DB18D1844B381BF77C03
:100560001D901DA4BBE424203284725E228100C948
:10057000F124ECA1E53D274D323520500A4D3234AF
:1005800000526573756D650055492050617573653E
:10059000004E6F204D61746368203A004D31303059
:1005A0003043004D31303030004D3939390A4D3249
:1005B0003830503053313630004D3530320A4D35F9
:1005C0003030000A202A2A2A7265636461742E641E
:1005D0006174615B305D203D004732380A4731204D
:1005E0004631303030205A313000556E737570709E
:1005F0006F72746564204F7074696F6E2053656C00
:1006000065637465640047323652323535004D31CA
:1006100039305335350A4732380A47333449380AB6
:1006200047323950310A47323950330A4732395349
:10063000310A47323953300A47323946302E300AB0
:10064000473239410A4D313034533231350A47325D
:10065000380A4D313039533231350A473158313546
:10066000305931353046353030300A47315A300A4A
:100670004D3530300A4D3430300A4D31313720534A
:100680006574205A204F6666736574004732380AD5
:100690004731204631303030205A302E300047323A
:1006A000385A0A473146313530305A302E300047FB
:1006B00032380A473146313530305A302E30004713
:1006C00032380A473146313030305A302E30005AF5
:1006D000204F6666736574203A2025730053746F4B
:1006E00070205472696767657265640053746F7037
:1006F000204E6F004D383400426567696E5377694C
:10070000746368007265636461742E61646472204E
:100710003D3D007265636461742E646174615B3099
:100720005D203D3D0077616974776179203D3D0032
:100730002A2A2A4E6F7A7A6C6554656D70537461FB
:100740007475735B325D203D00434F4D4D554E49EE
:10075000434154494F4E0044525952554E00455260
:10076000524F5253004543484F0047322F473320E2
:1007700062616420706172616D65746572730A00F4
:10078000536C6565702E2E2E005A2050726F626574
:100790002050617374204265640A005A2050726FC1
:1007A000626520506173742042656400486F6D6516
:1007B0002058592066697273740A00486F6D65206D
:1007C000585920466972737400205A3A2000205903
:1007D0003A200042656420583A20004D6573682035
:1007E000706F696E742063616E6E6F742062652035
:1007F0007265736F6C7665640A004D302053746FB8
:1008000070004D312053746F7000436F6E74696EC9
:10081000756500436C69636B20746F205265737556
:100820006D652E2E2E004E6F204D6F76652E004585
:100830006E642066696C65206C6973740A00426599
:1008400067696E2066696C65206C6973740A005272
:100850006573756D696E6720534400286E6F20665E
:10086000696C65290043757272656E742066696CE7
:10087000653A20005072696E742074696D653A2083
:10088000000A53746174733A2046696C616D656E39
:100890007420757365643A20002C204C6F6E676578
:1008A0007374206A6F623A2000546F74616C207414
:1008B000696D653A20002C204661696C65643A20B8
:1008C000002C2046696E69736865643A2000507296
:1008D000696E74733A200053746174733A20004552
:1008E0002025530044454255473A004D31313320CD
:1008F000530042656420436F6F6C696E672E2E2E25
:10090000004265642048656174696E672E2E2E0072
:100910004348414D4245525F54454D504552415424
:10092000555245004D4F54494F4E5F4D4F4445532E
:1009300000544845524D414C5F50524F544543542A
:10094000494F4E004155544F5245504F52545F53FA
:10095000445F5354415455530050524F4D50545FCF
:10096000535550504F525400454D455247454E4304
:10097000595F50415253455200434153455F4C49E2
:100980004748545F4252494748544E4553530054D8
:100990004F47474C455F4C494748545300534F46D7
:1009A00054574152455F504F574552004255494CAC
:1009B000445F50455243454E54004C4556454C49C2
:1009C0004E475F44415441005A5F50524F424500E8
:1009D0004155544F4C4556454C005052494E545F7A
:1009E0004A4F420050524F475245535300415554CD
:1009F0004F5245504F52545F54454D5000564F4C46
:100A0000554D455452494300454550524F4D0042C3
:100A1000494E4152595F46494C455F5452414E53ED
:100A20004645520053455249414C5F584F4E5F581E
:100A30004F4646004649524D574152455F4E414D43
:100A4000453A4D61726C696E20322E302E355F440E
:100A500057362E3120544D334420453550534D44A4
:100A6000425520534F555243455F434F44455F55D0
:100A7000524C3A68747470733A2F2F6769746875B2
:100A8000622E636F6D2F496E73616E697479417563
:100A9000746F6D6174696F6E2F4D61726C696E2F2A
:100AA000747265652F437265616C69747944776906
:100AB0006E5F322E302050524F544F434F4C5F5692
:100AC000455253494F4E3A312E30204D414348490B
:100AD0004E455F545950453A544D334420453520D6
:100AE000506C75732045585452554445525F434FDE
:100AF000554E543A3120555549443A636564653240
:100B00006132662D343161322D343734382D3962FB
:100B100031322D6335356336326633363766660AD1
:100B2000002F2F200046523A0020466C6F773A2063
:100B30000050726F7465637465642050696E0A00BA
:100B4000206F7574206F662072616E67650A0020E1
:100B5000536572766F200020643A0020693A0020C5
:100B6000703A006469730043290A0061626C65642D
:100B700020286D696E2074656D702000436F6C6471
:100B80002065787472756465732061726520005009
:100B90004944204175746F74756E65206661696C97
:100BA00065642120426164206578747275646572A1
:100BB000206E756D6265720A0046696C616D656EC6
:100BC000742072756E6F75742064697374616E63DE
:100BD0006520286D6D293A200046696C616D656E4F
:100BE000742072756E6F757420004F66667365743D
:100BF00073204170706C696564004572723A2054CC
:100C00006F6F206661722100546F6F2066617220E1
:100C100066726F6D207265666572656E63652070C1
:100C20006F696E740A00454550524F4D204F4B0A74
:100C3000002028302D313029002076616C75652028
:100C40006F7574206F662072616E6765004164760F
:100C5000616E6365204B3D00506F7765722D6C6F40
:100C60007373207265636F76657279200065075A29
:100C7000325E07570749074D323100726F74617455
:100C8000696F6E206D61747269783A0A005A5F6DFF
:100C90006F76655F636F6D700A00256C642E256941
:100CA0006D004D61726C696E20322E302E355F44BE
:100CB00057362E3100206D61783A00206D696E3A0A
:100CC000004178697320004572726F7220777269F3
:100CD00074696E6720746F20454550524F4D210A4C
:100CE00000627573793A2070617573656420666F70
:100CF0007220696E7075740A00627573793A20709B
:100D0000617573656420666F7220757365720A0081
:100D1000627573793A2070726F63657373696E6779
:100D20000A007061757365004D36303000206669C9
:100D30006C616D656E745F72756E6F7574200066A0
:100D4000696C616D656E745F72756E6F7574205439
:100D50000046696C616D656E7452756E6F757420B6
:100D600054004E6F20436865636B73756D2077691F
:100D70007468206C696E65206E756D6265722C20DA
:100D80004C617374204C696E653A2000636865633A
:100D90006B73756D206D69736D617463682C204C85
:100DA000617374204C696E653A20004C696E652051
:100DB0004E756D626572206973206E6F74204C6190
:100DC0007374204C696E65204E756D6265722B31AF
:100DD0002C204C617374204C696E653A20004D31B3
:100DE000313000776169740A005344207265616490
:100DF000206572726F720A002121204B494C4C20F1
:100E000063617573656420627920746F6F206D75FE
:100E1000636820696E6163746976652074696D65C5
:100E2000202D2063757272656E7420636F6D6D6125
:100E30006E643A2000363726033C3D380E2E303E95
:100E40001224221E1A1C1808440AFF43080907002E
:100E50000124F4D43050C38E20C2A24017828B707C
:100E600011127A910D816CD90AA861E108C7586600
:100E700007615143061E4B5D05C145A7041A411188
:100E800004093D9803713931034036DB0265339123
:100E900002D4305402802E1D02632CEE01752AC547
:100EA00001B028A001102781018F2564012B244B5C
:100EB00001E0223401AC211F018D200D01801FFCB7
:100EC00000841EED00971DDF00B81CD200E61BC693
:100ED00000201BBC00641AB200B219A8000A19A0B5
:100EE000006A189900D117910040178B00B516843D
:100EF0000031167E00B31579003A157300C7146FE0
:100F00000058146A00EE1366008813630025135E10
:100F100000C7125B006C12570015125400C111512A
:100F20000070114F0021114B00D61049008D104761
:100F3000004610440002104200C00F4000800F3EE7
:100F400000420F3C00060F3B00CB0E3800930E37DB
:100F5000005C0E3500270E3400F30D3200C10D3158
:100F600000900D3000600D2E00320D2D00050D2C6F
:100F700000D90C2B00AE0C2900850C29005C0C2735
:100F800000350C27000E0C2600E80B2400C40B24AF
:100F900000A00B23007D0B23005A0B2100390B21ED
:100FA00000180B2000F80A1F00D90A1E00BB0A1EF9
:100FB000009D0A1D00800A1D00630A1C00470A1BD1
:100FC000002C0A1B00110A1A00F7091A00DD091982
:100FD00000C4091900AB091900920917007B091810
:100FE00000630917004C091600360916002009167F
:100FF000000A091500F5081500E0081400CC0814D3
:1010000000B8081400A4081400900813007D08120A
:10101000006B08130058081200460812003408112B
:1010200000230811001208110001081100F0071038
:1010300000E0071000D0071000C0071000B0070F35
:1010400000A107100091070E0083070F0074070F1F
:101050000065070E0057070E0049070E003B070DFD
:10106000002E070E0020070D0013070D0006070DC8
:1010700000F9060C00ED060D00E0060C00D4060C8D
:1010800000C8060C00BC060C00B0060C00A4060B41
:101090000099060C008D060B0082060B0077060BEC
:1010A000006C060B0061060A0057060B004C060A8E
:1010B0000042060A0038060A002E060A0024060A24
:1010C000001A060A001006090007060A00FD0509B5
:1010D00000F4050900EB050900E2050900D905093E
:1010E00000D0050900C7050900BE050900B50508BF
:1010F00000AD050800A50509009C05080094050839
:10110000008C050800840508007C050800740508AB
:10111000006C050700650508005D05070056050819
:10112000004E050700470507004005080038050781
:1011300000310507002A050700230507001C0506E6
:1011400000160507000F0507000805060002050741
:1011500000FB040600F5040700EE040600E80406A0
:1011600000E2040700DB040600D5040600CF0406F5
:1011700000C9040600C3040600BD040600B7040647
:1011800000B1040500AC040600A6040600A0040596
:10119000009B04060095040500900406008A0405DF
:1011A0000085040500800406007A04050075040526
:1011B00000700405006B0405006604050061040569
:1011C000005C04050057040500520405004D0405A9
:1011D0000048040500430405003E0404003A0405E9
:1011E0000035040500300404002C04050027040425
:1011F00000230405001E0404001A0404001604055C
:1012000000110404000D0404000904050004040492
:101210000000040400FC030400F8030400F40304C9
:1012200000F0030400EC030400E8030400E40304FA
:1012300000E0030400DC030400D8030400D403042A
:1012400000D0030400CC030400C8030300C503035B
:101250000024F404D9201BC40C5C0E9804C4095F5C
:101260000265077101F405F900FB04B30048048727
:1012700000C10369005803550003034500BE023A4C
:10128000008402310053022A0029022500040220B2
:1012900000E4011C00C8011900AF011700980114F7
:1012A0000084011300710110006101100051010E52
:1012B0000043010D0036010B002B010B0020010B38
:1012C00000150109000C01090003010800FB0008DA
:1012D00000F3000800EB000700E4000600DE000653
:1012E00000D8000600D2000600CC000500C70005AB
:1012F00000C2000500BD000400B9000400B50004F0
:1013000000B1000400AD000400A9000400A5000322
:1013100000A20003009F0004009B0003009800034C
:10132000009500020093000300900003008D00026E
:10133000008B000300880002008600020084000386
:1013400000810002007F0002007D0002007B00029D
:1013500000790002007700010076000200740002AC
:101360000072000100710002006F0002006D0001B8
:10137000006C0002006A00010069000200670001C1
:1013800000660001006500010064000200620001C7
:101390000061000100600001005F0002005D0001CB
:1013A000005C0001005B0001005A000100590001CF
:1013B00000580001005700010056000100550001CF
:1013C00000540001005300000053000100520001CE
:1013D0000051000100500001004F0001004E0000CC
:1013E000004E0001004D0001004C0001004B0000C8
:1013F000004B0001004A00010049000100480000C4
:1014000000480001004700010046000000460001BE
:1014100000450000004500010044000100430000B9
:1014200000430001004200000042000100410000B2
:101430000041000100400001003F0000003F0001AA
:10144000003E0000003E0001003D0000003D0001A4
:10145000003C0000003C0000003C0001003B00009C
:10146000003B0001003A0000003A00010039000092
:101470000039000100380000003800000038000189
:101480000037000000370001003600000036000081
:101490000036000100350000003500000035000175
:1014A000003400000034000000340001003300006C
:1014B0000033000000330001003200000032000061
:1014C0000032000100310000003100000031000155
:1014D000003000000030000000300001002F00004C
:1014E000002F0000002F0000002F0001002E000040
:1014F000002E0000002E0001002D0000002D000035
:10150000002D0000002D0001002C0000002C000028
:10151000002C0000002C0001002B0000002B00001C
:10152000002B0000002B0001002A0000002A000010
:10153000002A0000002A0001002900000029000004
:1015400000290000002900000029000100280000F7
:1015500000280000002800000028000000280001EA
:1015600000270000002700000027000000270000DF
:1015700000270001002600000026000000260000D1
:1015800000260000002600010025000000250000C4
:1015900000250000002500000025000000250001B6
:1015A00000240000002400000024000000240000AB
:1015B000002400010023000000230000002300009D
:1015C000002300000023000000230000002300018E
:1015D0000022000000220000002200000022000083
:1015E0000022000000220001002100000021000074
:1015F0000021000000210000002100000021000067
:101600000021000100200000002000000020000058
:10161000002000000020000000200000002000004A
:1016200000200001001F0000001F0000001F00003C
:10163000001F0000001F0000001F0000001F00012D
:10164000001E0000001E0000001E0000001E000022
:1016500000232C0000B8220000561800003A0F00AA
:1016600000B8080000B1040000710200003E010053
:10167000006E6F74696669636174696F6E200063E0
:10168000616E63656C005072696E742041626F72A6
:10169000746564004469736D697373005549204132
:1016A000626F7274656400726573756D6500536571
:1016B0007474696E67732053746F726564202800B8
:1016C000000000000000000000000000486F6D698D
:1016D0006E67204661696C6564006F70656E0054CA
:1016E00052494747455245440066696C616D656ED5
:1016F00074007A5F6D696E00795F6D617800785F64
:101700006D6178005265706F7274696E6720656EE6
:101710006473746F70207374617475730A003F4A48
:10172000206F7574206F662072616E6765202830A7
:101730002E303120746F20302E33290A00204D398D
:101740003220580020204D61783A200020204D6939
:101750006E3A2000536F667420656E6473746F7008
:10176000733A2000496E76616C69642050696E207E
:101770004D6F64650A004D32342053256C6420544B
:10178000256C64004739322E3920452573004731D6
:1017900020462564004739322E39205A25730047E8
:1017A00031205A30204632303000473120582573DE
:1017B00020592573204633303030004D34323020EC
:1017C000532569205A2573004D3130362050256944
:1017D00020532569004D31303920532569004D31A2
:1017E000393020532569004D3230302044257300B4
:1017F0004739322E392045305A300A47315A320A99
:1018000047323852305859004D343230205330204E
:101810005A300020496E76616C6964206578747274
:1018200075646572200020746F6F206C6F6E672086
:10183000657874727573696F6E2070726576656E07
:101840007465640A0020636F6C6420657874727537
:1018500073696F6E2070726576656E7465640A00D8
:101860003F454550524F4D2073746F72616765203C
:101870006E6F7420617661696C61626C652E0A001E
:1018800057616974696E6720666F7220686561745C
:1018900075702E0A004C656176696E672047323696
:1018A000003F53706563696669656420582C592050
:1018B000636F6F7264696E617465206F7574206FF9
:1018C0006620626F756E64732E0A003F2852296588
:1018D000706561742076616C7565206E6F74207020
:1018E0006C61757369626C653B206D757374206201
:1018F00065206174206C6561737420312E0A003F8D
:101900002852296570656174206D75737420626555
:1019100020737065636966696564207768656E2009
:101920006E6F74207573696E6720616E204C43443E
:101930002E0A003F537065636966696564206E6FA7
:101940007A7A6C652074656D706572617475726504
:10195000206E6F7420706C61757369626C652E0AFD
:10196000003F5370656369666965642066696C61F0
:101970006D656E742073697A65206E6F7420706C6B
:1019800061757369626C652E0A003F537065636907
:1019900066696564207072696D65206C656E677438
:1019A00068206E6F7420706C61757369626C652E4F
:1019B0000A003F5072696D65206C656E677468201F
:1019C0006D757374206265207370656369666965FF
:1019D00064207768656E206E6F74207573696E671A
:1019E00020616E204C43442E0A003F5370656369AA
:1019F00066696564206E6F7A7A6C652073697A65B2
:101A0000206E6F7420706C61757369626C652E0A4C
:101A1000003F52657472616374696F6E204D756C1E
:101A20007469706C696572206D75737420626520CD
:101A30007370656369666965642E0A003F5370655B
:101A40006369666965642052657472616374696F65
:101A50006E204D756C7469706C696572206E6F7460
:101A600020706C61757369626C652E0A003F53705B
:101A700065636966696564206C6179657220686573
:101A800069676874206E6F7420706C617573696229
:101A90006C652E0A0043292E0A003F537065636966
:101AA00066696564206265642074656D7065726145
:101AB00074757265206E6F7420706C6175736962E5
:101AC0006C65202834302D004732362073746172E3
:101AD00074696E672E2E2E0A004F46460A00466134
:101AE0006465204865696768742000426564204C1D
:101AF0006576656C696E6720004661696C65642077
:101B0000746F20656E61626C6520426564204C656F
:101B100076656C696E670A00496E76616C6964204F
:101B20006D6573682E0A0076616C69640A53746F80
:101B30007261676520736C6F743A20004D6573683D
:101B400020697320003F496E76616C69642073746C
:101B50006F7261676520736C6F742E0A006F6B0083
:101B6000526573656E643A200025697920256964A1
:101B7000202569682025696D20256973007C3C3E1D
:101B80005E2B3D3F2F5B5D3B2C2A225C001000C981
:101B90000210012C014001220170011801B0010E58
:101BA00001F00104015002FA00B002F0003003E637
:101BB00000D003DC009004D2007005C800A006BE6F
:101BC000000008B400B009AA00D00BA000600E9677
:101BD0000060118C000015820020197800C01D6E75
:101BE00000A0226400B0275A00902C50000031461B
:101BF00000E0343C0010383200903A2800603C1E6F
:101C000000A03D1400803E0A00203F0000496E768F
:101C1000616C69642065787472756465720A005439
:101C20004845524D414C2052554E41574159005460
:101C30006865726D616C2052756E617761790045DF
:101C400072723A204D415854454D50004D41585400
:101C5000454D50207472696767657265640045720E
:101C6000723A204D494E54454D50004D494E544511
:101C70004D5020747269676765726564004D383431
:101C800020582059205A204500202F002042403A59
:101C90000020403A0020573A00FFFDFCFAF8F6F425
:101CA000F2F0EEECEAE9E7E5E3E1E0DEDCDAD9D7F1
:101CB000D5D4D2D0CFCDCBCAC8C7C5C3C2C0BFBD93
:101CC000BCBAB9B7B6B4B3B2B0AFADACAAA9A8A606
:101CD000A5A4A2A1A09E9D9C9A9998979594939251
:101CE000908F8E8D8B8A8988878684838281807F7E
:101CF0007E7D7B7A797877767574737271706F6E8A
:101D00006D6C6B6A696867666564636261605F5E7B
:101D10005D5C5B5A59585857565554535251505060
:101D20004F4E4D4C4B4A4A4948474646454443422C
:101D30004241403F3E3E3D3C3B3B3A3938383736E6
:101D40003535343332323130302F2E2E2D2C2B2B93
:101D50002A29292827272625252423232221212033
:101D6000201F1E1E1D1C1C1B1B1A191918181716C4
:101D700016151514131312121111100F0F0E0E0D4C
:101D80000D0C0C0B0A0A09090808070706060505C9
:101D90000404030302020100004D313030302053AF
:101DA0000070726F6D70745F00656E64002020506B
:101DB0006C616E6E657242756666657242797465B5
:101DC000733A20002046726565204D656D6F72790B
:101DD0003A2000436F6D70696C65643A204D617202
:101DE00020323420323032300A00204C61737420AB
:101DF000557064617465643A20323032302D30336E
:101E00002D3230207C20417574686F723A205469FD
:101E10006E794D616368696E657333440A00322ED2
:101E2000302E355F4457362E310A004D61726C6991
:101E30006E0020536F66747761726520526573651A
:101E4000740A00205761746368646F672052657379
:101E500065740A002042726F776E206F757420528D
:101E6000657365740A002045787465726E616C2034
:101E700052657365740A00506F77657255700A0079
:101E80006175746F25632E670047323858590044D6
:101E90006F6E65207072696E74696E672066696C1A
:101EA000650A004D3737004D3331006572726F722D
:101EB0002077726974696E6720746F2066696C653B
:101EC0000A00446F6E6520736176696E67206669EB
:101ED0006C652E0A004D323900656E6473746F7044
:101EE00073206869743A200050726F62696E6720CF
:101EF0004661696C65640A0050726F62696E6720A2
:101F00004661696C65640047323800446F6E652E27
:101F10000A003F496E76616C69642073746F726168
:101F2000676520736C6F742E0A3F557365203020EF
:101F3000746F20003F5034206973206F6E6C7920DD
:101F4000617661696C61626C65207768656E20619D
:101F50006E204C43442069732070726573656E7403
:101F60002E0A003F5032206973206F6E6C79206119
:101F70007661696C61626C65207768656E20616E60
:101F8000204C43442069732070726573656E742E13
:101F90000A0050726F62696E672061726F756E64BD
:101FA0002028004D65736820696E76616C696461F4
:101FB0007465642E2050726F62696E67206D657360
:101FC000682E0A004D657368207A65726F65642E0D
:101FD0000A0044656661756C742073746F72616782
:101FE0006520736C6F7420302073656C6563746555
:101FF000642E0A004C6F6164696E672074657374A7
:102000005F7061747465726E2076616C7565732E95
:102010000A0A00496E76616C696420746573745FA6
:102020007061747465726E2076616C75652E2028FF
:102030002D3120746F2032290A0A004C6F636174BD
:10204000696F6E7320696E76616C69646174656432
:102050002E0A0A00456E74697265204D657368200A
:10206000696E76616C6964617465642E0A0A005356
:1020700074616E6461726420446576696174696F2D
:102080006E3A20004D34323120696E636F72726592
:10209000637420706172616D65746572207573611F
:1020A00067650A0041636375726163793A200020B5
:1020B0006F66200044696420004733342061626FFA
:1020C000727465642E0A00546172676574206163DE
:1020D0006375726163792061636869657665642EF2
:1020E0000A0044656372656173696E6720616363AA
:1020F00075726163792064657465637465642E0A22
:10210000000A444946464552454E4345205A312D22
:102110005A323D0050726F62696E67206661696C69
:1021200065642E0A000A495445524154494F4E3ABB
:1021300020003F2841296D706C696669636174698C
:102140006F6E206F7574206F6620626F756E64739A
:102150002028302E352D322E30292E0A003F2854CB
:1021600029617267657420616363757261637920A8
:102170006F7574206F6620626F756E6473202830EF
:102180002E30312D312E30292E0A003F2849297456
:1021900065726174696F6E206F7574206F6620625E
:1021A0006F756E64732028312D3330292E0A003F5D
:1021B000285929206F7574206F6620626F756E64D0
:1021C000732E0A003F285829206F7574206F6620EF
:1021D000626F756E64732E0A003F285329205A2DB2
:1021E00050726F6265506F736974696F6E20696EAB
:1021F00064657820696E76616C69642E0A003F28F8
:1022000053292069732072657175697265642E0A9D
:10221000004D3432322053002052616E67653A20FF
:10222000004D65616E3A200046696E6973686564A9
:10223000210A002072616E67653A20002073696789
:102240006D613A2000206D65616E3A20003A207A77
:102250003A2000476F696E6720746F3A2058004338
:10226000570A00206469723A0020616E676C653A13
:10227000005374617274207261646975733A00501E
:102280006F736974696F6E696E672074686520701A
:10229000726F62652E2E2E0A003F4E756D6265725A
:1022A000206F66206C65677320696E206D6F7665A0
:1022B0006D656E74206E6F7420706C6175736962E9
:1022C0006C652028302D3135292E0A003F202858F2
:1022D0002C5929206F7574206F6620626F756E64AB
:1022E000732E0A003F53616D706C652073697A65C7
:1022F000206E6F7420706C61757369626C65202844
:10230000342D3530292E0A004D3438205A2D507284
:102310006F6265205265706561746162696C697491
:102320007920546573740A003F2856296572626FDC
:102330007365206C6576656C20696D706C61757372
:1023400069626C652028302D34292E0A00416363B0
:10235000656C65726174696F6E3A20500020536934
:102360007A653A200043616E6E6F74206F70656EFF
:102370002073756264697220005344206361726443
:10238000206F6B0A006F70656E526F6F742066610C
:10239000696C65640A00766F6C756D652E696E698F
:1023A00074206661696C65640A00534420696E6933
:1023B00074206661696C0A004D3233202573004633
:1023C000696C652073656C65637465640A004669B1
:1023D0006C65206F70656E65643A2000454E442040
:1023E000535542524F5554494E450A002220706FB2
:1023F00073002220706172656E743A220053554258
:10240000524F5554494E452043414C4C2074617203
:102410006765743A2200747279696E6720746F2060
:1024200063616C6C207375622D67636F64652066F1
:10243000696C6573207769746820746F6F206D61B3
:102440006E79206C6576656C732E204D4158206C3A
:102450006576656C2069733A310A0044656C657471
:10246000696F6E206661696C65642C2046696C65D5
:102470003A200046696C652064656C657465643A51
:10248000005344207072696E74696E6720627974BB
:102490006520004E6F74205344207072696E746919
:1024A0006E670A0057726974696E6720746F2066E0
:1024B000696C653A2000667265736800646F696EC6
:1024C00067004E6F772000446966663A20004672C6
:1024D0006F6D5374703A00537465707065723A0092
:1024E000556E4C6576656C3A004C6576656C656436
:1024F0003A005261773A20202020000A4C6F676929
:1025000063616C3A00436F756E7420453A00436115
:10251000703A0050726F6265204F66667365742072
:102520005A0050726F6265204F66667365745A3A3E
:1025300020003F5A206F7574206F662072616E67AD
:10254000652028003F59206F7574206F66207261E6
:102550006E676520282D003F58206F7574206F66C8
:102560002072616E676520282D0050726F626520B1
:102570004F6666736574205800656E717565756584
:10258000696E67202200206D61783A2000206D6915
:102590006E3A200020436F756E7420583A00236411
:1025A0006566696E652044454641554C545F004B55
:1025B0006420004B6920004B7020005049442041AA
:1025C00075746F74756E652066696E69736865648D
:1025D000212050757420746865206C617374204BE1
:1025E000702C204B6920616E64204B6420636F6EF9
:1025F0007374616E74732066726F6D2062656C6FA8
:102600007720696E746F20436F6E666967757261BB
:1026100074696F6E2E680A00504944204175746FCA
:1026200074756E65206661696C6564212074696DDE
:10263000656F75740A000A20436C617373696320C7
:10264000504944200A00204B643A2000204B693A4C
:102650002000204B703A20000A204E6F206F7665D4
:102660007273686F6F740A002054753A2000204B13
:10267000753A200020643A200020626961733A2094
:1026800000504944204175746F74756E65207374F1
:102690006172740A00504944204175746F74756EFC
:1026A00065206661696C6564212054656D70657292
:1026B000617475726520746F6F20686967680A00BD
:1026C000453100626564002C2073797374656D2058
:1026D00073746F7070656421204865617465725F02
:1026E00049443A200048656174696E672046616913
:1026F0006C65640048656174696E67206661696C29
:102700006564004D3131322053687574646F776EA3
:1027100000202D20496E76616C69642065787472A2
:1027200075646572206E756D62657220210A007095
:10273000012C0190012701B0012201C0011D01F00F
:102740000118011002130130020E0160020901900C
:10275000020401C002FF000003FA004003F50080FC
:1027600003F000D003EB002004E6007004E100E079
:1027700004DC004005D700C005D2004006CD00D0E3
:1027800006C8008007C3003008BE00F008B900C0CA
:1027900009B400B00AAF00B00BAA00D00CA500002D
:1027A0000EA000500F9B00C0109600501291000028
:1027B000148C00C0158700B0178200B0197D00D0BE
:1027C0001B7800001E730040206E0090226900F00C
:1027D00024640040275F0090295A00E02B55001028
:1027E0002E500020304B0010324600E03341009064
:1027F000353C001037370070383200A0392D00B05A
:102800003A2800A03B2300603C1E00103D190090B8
:102810003D1400103E0F00703E0A00C03E0500004F
:102820003F0000403FFBFF803FF6FFC03FF1FF202D
:102830004A002052000A20696E6974207A70726F13
:1028400062655F7A6F6666736574203D200045455A
:1028500050524F4D20496E697469616C697A6564A4
:102860000A004D65736820736176656420696E2087
:10287000736C6F7420003F556E61626C6520746FDD
:102880002073617665206D65736820646174612EC4
:102890000A0020736C6F743D00206D65736865736A
:1028A0005F656E643D004532454E443D00206D65D8
:1028B000736820736C6F747320617661696C6162F8
:1028C0006C652E0A003F496E76616C696420736CFA
:1028D0006F742E0A004D657368206C6F61646564C7
:1028E0002066726F6D20736C6F7420003F556E61AF
:1028F000626C6520746F206C6F6164206D65736815
:1029000020646174612E0A0048617264636F6465BB
:10291000642044656661756C742053657474696ED7
:102920006773204C6F616465640A00556E6966695F
:10293000656420426564204C6576656C696E67004D
:102940003B200020204D363033200020204D3431F4
:102950003220530046696C616D656E742072756E2D
:102960006F75742073656E736F723A002055004660
:10297000696C616D656E74206C6F61642F756E6C2F
:102980006F6164206C656E677468733A0020204D37
:10299000393030204B004C696E656172204164769D
:1029A000616E63653A0020204D3835312058005A59
:1029B0002D50726F6265204F66667365740020202B
:1029C0004D343133205300506F7765722D4C6F7347
:1029D00073205265636F766572793A0020204D331B
:1029E000303420500020204D3330312050005049E9
:1029F000442073657474696E67733A00206D657363
:102A00006865732E0A0A00454550524F4D20636198
:102A10006E20686F6C642000416374697665204D98
:102A200065736820536C6F743A200020204D343257
:102A30003020530020204D323036205800486F6D32
:102A400065206F66667365743A0020204D3230351C
:102A5000204200416476616E6365643A20423C6DB9
:102A6000696E5F7365676D656E745F74696D655FD0
:102A700075733E20533C6D696E5F66656564726177
:102A800074653E20543C6D696E5F74726176656C4E
:102A90005F66656564726174653E204A3C6A756E66
:102AA000635F6465763E0020204D32303420500054
:102AB000416363656C65726174696F6E2028756E21
:102AC0006974732F7332293A20503C7072696E74A6
:102AD0005F616363656C3E20523C72657472616332
:102AE000745F616363656C3E20543C74726176650B
:102AF0006C5F616363656C3E0020204D3230312095
:102B000058004D6178696D756D20416363656C6532
:102B1000726174696F6E2028756E6974732F7332D9
:102B2000293A0020590020204D3230332058004DE2
:102B30006178696D756D2066656564726174657331
:102B40002028756E6974732F73293A005374657069
:102B5000732070657220756E69743A0020204D32C2
:102B600030302044300A0020204D323030204400E4
:102B70002044697361626C65640A0046696C616D2A
:102B8000656E742073657474696E67733A002028EB
:102B90006D6D29002020473231202020203B205518
:102BA0006E69747320696E206D6D0000803B440077
:102BB000803B4400002041000096420000A04200FB
:102BC00000A042000048440000BE42D0070000D0F0
:102BD000070000640000004B000000706F77657212
:102BE0006F6666004B494C4C45442E20005072697C
:102BF0006E7465722068616C7465642E206B696CFC
:102C00006C28292063616C6C6564210A0065636827
:102C10006F3A004572726F723A0020204D343231A3
:102C20002049002020473239204939390A006163A0
:102C3000746976650A002053797374656D20763166
:102C40002E303120002020207C0A004E414E0020F2
:102C5000202E20202000207C004C43443A0A0043D0
:102C600053563A0A0020666F7220003A0A0A000A98
:102C700042656420546F706F67726170687920528A
:102C800065706F7274007061757365640053656E72
:102C900064204D31303820746F20726573756D6516
:102CA0000A00496E736572742066696C616D656EA9
:102CB0007420616E642073656E64204D3130380A73
:102CC000005265686561742066696E697368656441
:102CD0002E0052656865617420446F6E6500526510
:102CE00068656174696E672E2E2E00526568656195
:102CF00074696E6700526568656174004865617447
:102D0000657254696D656F75740053656E64204D0E
:102D100031303820746F2068656174206E6F7A7A64
:102D20006C650A004E6F7A7A6C65205061726B6533
:102D30006400486F74656E6420746F6F20636F6CFD
:102D4000640A00627574746F6E004C6F6164204693
:102D5000696C616D656E74004C6F61642046696CCE
:102D6000616D656E74205400726573756D656400E5
:102D7000526573756D696E670005000006010004F9
:102D800000060100060500000006000400882D83EF
:102D90002D7E2D792D25532025692F2569005D0A6B
:102DA0000062656420706C616E65206E6F726D618B
:102DB0006C203D205B00436F756C64206E6F742047
:102DC000636F6D706C657465204C534621005469C7
:102DD0006C74696E67206D65736820706F696E74BE
:102DE00020003F4572726F722070726F62696E6769
:102DF00020706F696E742E2041626F7274696E6705
:102E0000206F7065726174696F6E2E0A0025532001
:102E1000332F330054696C74696E67206D65736875
:102E20002028332F33290A00255320322F33005412
:102E3000696C74696E67206D6573682028322F3362
:102E4000290A00436F727265637465645F5A3D00BE
:102E500054696C74696E6720506F696E74002553F5
:102E600020312F330054696C74696E67206D65736F
:102E7000682028312F33290A004D65616E204D6589
:102E80007368204865696768743A200023206F667C
:102E90002073616D706C65733A200050726F6269C7
:102EA0006E6720506F696E74000A50726F62696EAF
:102EB00067206D65736820706F696E742000496EBD
:102EC00076616C6964206D617020747970652E0A7A
:102ED0000A003F284629616465206865696768744F
:102EE00020666F7220426564204C6576656C2043D5
:102EF0006F7272656374696F6E206E6F7420706C90
:102F000061757369626C652E0A0A003F43616E2722
:102F10007420616374697661746520616E642064F5
:102F20006561637469766174652061742074686595
:102F30002073616D652074696D652E0A0A00426F09
:102F40007468205820262059206C6F636174696F63
:102F50006E73206D7573742062652073706563698C
:102F6000666965642E0A0A003F496E76616C696481
:102F700020677269642073697A6520284A29207362
:102F800070656369666965642028322D39292E0AC7
:102F90000A003F285029686173652076616C756569
:102FA00020696E76616C69642028302D36292E0ADE
:102FB0000A003F2856296572626F7365206C65763A
:102FC000656C20696D706C61757369626C65202831
:102FD000302D34292E0A0A003F2852296570657465
:102FE0006974696F6E20636F756E7420696E7661A7
:102FF0006C69642028312B292E0A0A006F70656ED7
:10300000206661696C65642C2046696C653A200015
:103010002062797465733B2063726320004E6F20D9
:10302000454550524F4D2E0A00454550524F4D20B8
:103030006461746173697A65206572726F722E0AB9
:10304000003F4D65736820746F6F2062696720666A
:103050006F7220454550524F4D2E0A0055424C206C
:1030600072657365740A00206C6F61646564206624
:10307000726F6D2073746F726167652E0A004D6503
:10308000736820003F43616E277420656E61626C37
:1030900065200020696E697469616C697A65642EC7
:1030A0000A0A002073746F72656420736574746912
:1030B0006E67732072657472696576656420280096
:1030C000202863616C63756C6174656429210A0052
:1030D00020213D2000454550524F4D204352432072
:1030E0006D69736D61746368202D202873746F722D
:1030F0006564292000496E6465783A2000204D619E
:10310000726C696E3D563736290A00454550524F5C
:103110004D2076657273696F6E206D69736D617491
:1031200063682028454550524F4D3D00646F6E65E1
:103130000A00496E73756666696369656E7420641A
:103140006174610A004578747261706F6C617469B2
:103150006E67206D6573682E2E2E0053544F5050AD
:1031600045442E20005072696E7465722073746F2E
:10317000707065642064756520746F206572726F6D
:1031800072732E2046697820746865206572726FAC
:103190007220616E6420757365204D393939207451
:1031A0006F20726573746172742E202854656D707F
:1031B00065726174757265206973207265736574D8
:1031C0002E205365742069742061667465722072C4
:1031D000657374617274696E67290A002121205336
:1031E000544F502063616C6C656420626563617547
:1031F0007365206F6620424C546F7563682065725A
:10320000726F72202D2072657374617274207769F9
:103210007468204D3939390A002F2F616374696F42
:103220006E3A00626567696E0073686F7700446983
:103230007361626C6552756E6F757400507572675C
:10324000654D6F726500554E4B4E4F574E2053548F
:103250004154450047434F44455F494E464F004C5B
:1032600043445F50415553455F524553554D4500CA
:1032700046494C414D454E545F52554E4F55545F53
:10328000434F4E54494E55450046494C414D454EDD
:10329000545F52554E4F5554004D383736205265C5
:1032A00073706F6E64696E672050524F4D50545F5B
:1032B000000000803F3333914233331043CCCC576E
:1032C0004333B38F430080B3430000210024002721
:1032D000002A002D00300033000101000004010726
:1032E000010A0100002200250028002B002E0031D9
:1032F00000340002010000050108010B010000205C
:10330000002300260029002C002F003200000100BD
:103310000003010601090105050505070508080860
:1033200008020202020A0A08080404040401010156
:10333000010101010103030303030303030407075E
:10334000070C0C0C0C0C0C0C0C02020202060606FC
:1033500006060606060B0B0B0B0B0B0B0B010210E4
:10336000202008081020401020408002010201089F
:10337000040201010204081020408080402010084F
:1033800004020180040201804020100804020108A8
:103390000402010102040810204080010204081008
:1033A00020408000000A0B02090C0D0E08070304E0
:1033B000010000000000000000000000000000000C
:1033C00000000000000000000000000000000012EB
:1033D00011100000000000000000000000000000CC
:1033E000000000000000000000486F6D652025739C
:1033F0002573257320466972737400220A00556E86
:103400006B6E6F776E20636F6D6D616E643A202214
:1034100000205A3A0020593A000000B4430000B49A
:10342000430000C8430000B4430000B44300000060
:1034300000000048420000484200008040020204B0
:103440000000A0400000A040000000400101FF007B
:1034500000000100000001000080005555550000EB
:1034600000400033333300AAAA2A00499224000006
:10347000002000C7711C0099991900D1451700550B
:103480005515003BB1130024491200111111000021
:103490000010000F0F0F00E3380E0043790D00CC31
:1034A000CC0C00C3300C00E8A20B0064210B00AA76
:1034B000AA0A00703D0A009DD80900427B090092CB
:1034C000240900DCD30800888808001042080000A6
:1034D000000800F0C10700878707007550070071DA
:1034E0001C07003EEB0600A1BC06006990060066C2
:1034F000660600703E06006118060017F4050074A9
:10350000D105005BB00500B2900500627205005560
:1035100055050078390500B81E0500050505004E63
:10352000EC040087D40400A1BD040090A704004966
:10353000920400C17D0400EE690400C756040044F3
:103540004404005C3204000821040041100400001F
:103550000004003FF00300F8E0030026D20300C39C
:10356000C30300CCB503003AA803000A9B0300384C
:103570008E0300C08103009F750300D069030050D3
:103580005E03001D53030034480300913D030033E4
:1035900033030016290300381F030097150300307A
:1035A0000C0300030303000BFA020049F10200BA06
:1035B000E802005CE002002DD802002DD002005984
:1035C000C80200B0C0020031B90200DAB10200AA9C
:1035D000AA0200A0A30200BC9C0200FA9502005CB3
:1035E0008F0200DF88020082820200457C020027F1
:1035F00076020027700200436A02007C640200D059
:103600005E02003F590200C85302005761726E69A2
:103610006E673A20486F6D696E672042756D702045
:1036200044697669736F72203C20310A00507269D8
:103630006E742050617573656400544D33442045A9
:103640003520506C75732052656164792E0050727C
:10365000696E74696E672E2E2E00A5016701112414
:103660001FBECFEFD1E2DEBFCDBF00E00CBF18E040
:10367000A0E0B2E0E8EEF8EC02E00BBF02C0079079
:103680000D92A834B107D9F72DE1A8E4B8E001C044
:103690001D92A130B207E1F71BE1CEE2DBE100E0D1
:1036A00006C021970109802FFE010F944A5FCD3299
:1036B000D10780E00807A9F70F945F4C0D9462646E
:1036C0000C9400002F923F924F925F926F927F92E4
:1036D0008F929F92AF92BF92CF92DF92EF92FF9222
:1036E0000F931F93CF93DF93CDB7DEB7A4970FB699
:1036F000F894DEBF0FBECDBF81E08093F509109234
:10370000F4091092F3098091260F882329F00F9471
:10371000184B882309F46AC610925F0880915F08ED
:10372000853620F010925F081092260FE091260F48
:103730008E2FEE0F990BAA0BBB0BFC013197E730D4
:10374000F10508F0A2C08827EE58FF4F8F4F0D9467
:103750004A5F0F94104B882309F497C081E080934F
:10376000560286EC93E00E94985480E190E090939A
:10377000C7148093C61485E08093BA1472E8F72EBC
:10378000F092BD1484E190E1A0E0B0E08093BE141B
:103790009093BF14A093C014B093C1140F94C72882
:1037A00081E09AE59093C7148093C61486E390E075
:1037B0009093C9148093C81487E08093BA14F09250
:1037C000BD1484E890E0A0E0B0E08093BE14909334
:1037D000BF14A093C014B093C1140F94C72853C052
:1037E0000F94104B882309F450C049C084ED93E036
:1037F0000E94985481E09AE59093C7148093C61470
:1038000080E490E09093C9148093C81467E0F62E8A
:10381000F092BA1482E88093BD1484E890E0A0E0AE
:10382000B0E08093BE149093BF14A093C014B093E3
:10383000C1140F94C728F092260F27C080915E080C
:10384000882319F10F94104B8823F9F00F94184B2B
:1038500081111BC0D1C50F94104B8823B1F00F9478
:10386000184B811112C0F6C50F94184B81110DC071
:1038700042E060E070E0CB010F942E4B04C00F9447
:10388000184B811102C01092260F80915602882396
:1038900009F4DCC480918412811123C184E096E094
:1038A0009093C7148093C61480EA90E89093C9144B
:1038B0008093C81447E0F42EF092BA1452E8E52E33
:1038C000E092BD1480EA90E0A0E0B0E08093BE14E6
:1038D0009093BF14A093C014B093C1140F94C72841
:1038E0008091050290910602A0910702B091080212
:1038F0000097A105B10519F51092C7141092C614CE
:1039000035E0F32EF092BA14E092BD148AE890E10B
:10391000A0E0B0E08093BE149093BF14A093C014B5
:10392000B093C1140F94C72889E090E09093C71416
:103930008093C614F092BA14E092BD1441C001966F
:10394000A11DB11D25E0B695A795979587952A9558
:10395000D1F70197A109B109009721E0A207B105AC
:1039600058F0B093C714A093C6149093C9148093D1
:10397000C814F092BA1407C09093C7148093C61469
:1039800085E08093BA1492E8F92EF092BD148AE88B
:1039900090E1A0E0B0E08093BE149093BF14A09398
:1039A000C014B093C1140F94C72888E090E090939E
:1039B000C7148093C61485E08093BA14F092BD14A6
:1039C0008CE890E1A0E0B0E08093BE149093BF1427
:1039D000A093C014B093C1140F94C728C0900502DF
:1039E000D0900602E0900702F0900802C114D104C2
:1039F00031E0E306F10450F0F092C714E092C614EF
:103A0000D092C914C092C81487E005C0D092C714E0
:103A1000C092C61485E08093BA1482E88093BD14E6
:103A200088E890E1A0E0B0E08093BE149093BF14CA
:103A3000A093C014B093C1140F94C728FE2CED2C92
:103A4000DC2CCC24C114D10481E0E806F10450F050
:103A5000F092C714E092C614D092C914C092C81450
:103A600087E005C0D092C714C092C61485E0809349
:103A7000BA14B2E8FB2EF092BD1481EA90E0A0E007
:103A8000B0E08093BE149093BF14A093C014B09381
:103A9000C1140F94C7288091230F882319F083E065
:103AA00090E002C082E090E09093C7148093C61427
:103AB00085E08093BA14F092BD1485E490E1A0E013
:103AC000B0E08093BE149093BF14A093C014B09341
:103AD000C1140F94C72880918412875E809384124A
:103AE00023C08A3F08F58EEF8093841282EE93E024
:103AF0000E94985481E08093560281E09AE5909369
:103B0000C7148093C6148DE290E09093C9148093FB
:103B1000C81487E08093BA1482E88093BD1484E8C7
:103B200090E0A0E0B0E03DC420918412822F90E0AC
:103B3000253678F49093C7148093C61485E080935B
:103B4000BA1482E88093BD1480E090E1A0E0B0E078
:103B500010C0845691099093C7148093C61485E0D1
:103B60008093BA1482E88093BD1481E090E1A0E0D4
:103B7000B0E08093BE149093BF14A093C014B09390
:103B8000C1140F94C7288091161490911714891BA3
:103B9000877009F0D7C40E941D518111D3C4809150
:103BA000341582FDCFC480C484E690E09093C7149E
:103BB0008093C614E092BA14F092BD148EE090E1A6
:103BC000A0E0B0E08093BE149093BF14A093C01403
:103BD000B093C1140F94C72892E3C91A90E8D90A88
:103BE000CC0CDD1CD092C714C092C614E092BA145B
:103BF000F092BD148FE090E1A0E0B0E08093BE149D
:103C00009093BF14A093C014B093C1140F94C7280D
:103C10000E94C27290E09093C7148093C61485E00E
:103C20008093BA1482E88093BD1486E190E1A0E00D
:103C3000B0E08093BE149093BF14A093C014B093CF
:103C4000C1140F94C72820E030E048EC52E46091A2
:103C5000E61C7091E71C8091E81C9091E91C0F9480
:103C6000D7580F94BF607093C7146093C61455E083
:103C7000E52EE092BA1462E8F62EF092BD1486E2C8
:103C800090E1A0E0B0E08093BE149093BF14A093A5
:103C9000C014B093C1140F94C72820E030E0A901EC
:103CA0006091D0127091D1128091D2129091D31262
:103CB0000F94535F0F94BF607093C7146093C61442
:103CC000E092BA14F092BD1486E390E1A0E0B0E077
:103CD0008093BE149093BF14A093C014B093C114EA
:103CE0000F94C7286091040F7091050F8091060F03
:103CF0009091070F0F94BF607093C7146093C61420
:103D0000E092BA14F092BD148CE390E1A0E0B0E030
:103D10008093BE149093BF14A093C014B093C114A9
:103D20000F94C7288091D4129091D5129093C71404
:103D30008093C614E092BA14F092BD1484E390E12B
:103D4000A0E0B0E08093BE149093BF14A093C01481
:103D5000B093C1140F94C7288091080F9091090F58
:103D60009093C7148093C614E092BA14F092BD14D5
:103D70008AE390E1A0E0B0E08093BE149093BF147A
:103D8000A093C014B093C1140F94C72880918302EC
:103D9000909184029093C7148093C614E092BA1451
:103DA000F092BD1480E093E1A0E0B0E08093BE14F7
:103DB0009093BF14A093C014B093C1140F94C7285C
:103DC00020E030E040E251E46091700E7091710E9D
:103DD0008091720E9091730E0F94D7580F94C66015
:103DE0007093C7146093C614E092BA14F092BD1495
:103DF00082E492E1A0E0B0E08093BE149093BF14FF
:103E0000A093C014B093C1140F94C72820E030E0F1
:103E100040E251E46091740E7091750E8091760EBF
:103E20009091770E0F94D7580F94C6607093C71473
:103E30006093C614E092BA14F092BD1486E492E145
:103E4000A0E0B0E08093BE149093BF14A093C01480
:103E5000B093C1140F94C72820E030E040E251E451
:103E60006091780E7091790E80917A0E90917B0E10
:103E70000F94D7580F94C6607093C7146093C614FC
:103E8000E092BA14F092BD148AE492E1A0E0B0E0AE
:103E90008093BE149093BF14A093C014B093C11428
:103EA0000F94C72820E030E040E251E460917C0E9E
:103EB00070917D0E80917E0E90917F0E0F94D75859
:103EC0000F94C6607093C7146093C614E092BA143E
:103ED000F092BD148EE492E1A0E0B0E08093BE14B5
:103EE0009093BF14A093C014B093C1140F94C7282B
:103EF00020E030E048EC52E46091DE1C7091DF1C61
:103F00008091E01C9091E11C0F94D7580F94BF60F2
:103F10007093C7146093C614E092BA14F092BD1463
:103F200086E392E1A0E0B0E08093BE149093BF14CA
:103F3000A093C014B093C1140F94C72820E030E0C0
:103F400048EC52E46091E21C7091E31C8091E41C07
:103F50009091E51C0F94D7580F94BF607093C714CD
:103F60006093C614E092BA14F092BD148AE392E111
:103F7000A0E0B0E08093BE149093BF14A093C0144F
:103F8000B093C1140F94C72820E030E048EC52E40D
:103F90006091E61C7091E71C8091E81C9091E91CEF
:103FA0000F94D7580F94BF607093C7146093C614D2
:103FB000E092BA14F092BD148EE392E1A0E0B0E07A
:103FC0008093BE149093BF14A093C014B093C114F7
:103FD0000F94C72880910302909104029093C71414
:103FE0008093C614E092BA14F092BD1482E592E177
:103FF000A0E0B0E08093BE149093BF14A093C014CF
:10400000B093C1140F94C7288091010290910202CD
:104010009093C7148093C614E092BA14F092BD1422
:1040200084E592E1A0E0B0E08093BE149093BF14C9
:10403000A093C014B093C1140F94C72820E030E0BF
:1040400040E251E46091D7127091D8128091D91258
:104050009091DA120F94D7580F94C6607093C714DA
:104060006093C614E092BA14F092BD1486E592E112
:10407000A0E0B0E08093BE149093BF14A093C0144E
:10408000B093C1140F94C7282CEA35EC47E25EE3E5
:104090006091DB127091DC128091DD129091DE1242
:1040A0000F944D6020E030E040E251E40F94D75887
:1040B0000F94C6607093C7146093C614E092BA144C
:1040C000F092BD148AE592E1A0E0B0E08093BE14C6
:1040D0009093BF14A093C014B093C1140F94C72839
:1040E0002CEA35EC47E25EE36091DF127091E0125A
:1040F0008091E1129091E2120F94D75820E030E0C5
:1041000040E251E40F94D7580F94C6607093C714DF
:104110006093C614E092BA14F092BD148EE592E159
:10412000A0E0B0E08093BE149093BF14A093C0149D
:10413000B093C1140F94C72820E030E040E251E46E
:1041400060910B0F70910C0F80910D0F90910E0FDD
:104150000F94D7580F94C6607093C7146093C61419
:10416000E092BA14F092BD1482E692E1A0E0B0E0D1
:104170008093BE149093BF14A093C014B093C11445
:104180000F94C7282CEA35EC47E25EE360910F0FED
:104190007091100F8091110F9091120F0F944D603C
:1041A00020E030E040E251E40F94D7580F94C6600D
:1041B0007093C7146093C614E092BA14F092BD14C1
:1041C00086E692E1A0E0B0E08093BE149093BF1425
:1041D000A093C014B093C1140F94C7282CEA35ECF7
:1041E00047E25EE36091130F7091140F8091150FF9
:1041F0009091160F0F94D75820E030E040E251E440
:104200000F94D7580F94C6607093C7146093C61468
:10421000E092BA14F092BD148AE692E1A0E0B0E018
:104220008093BE149093BF14A093C014B093C11494
:104230000F94C728B0905908B11025C280915B082F
:10424000811121C280915E088111E2C29AE0C92EDB
:1042500095E1D92E2AE1B22E83EE92E10E94CBE2C3
:10426000E0904E08F0904F081816190634F4BAE1A1
:10427000EB16F10414F40C94F9351E141F0494F495
:1042800090916B1480910A15981709F4A7C38AE1DD
:10429000EAE0F5E1DF011D928A95E9F710924F08F7
:1042A00010924E0880916E1490916F14A09170142A
:1042B000B09171148C34E0E19E07A105B10509F4B9
:1042C0007AC08A349041A105B10509F474C020E098
:1042D00030E040E251E46091730270917402809189
:1042E0007502909176020F94D7580F94BF60709327
:1042F000C7146093C61405E00093BA1412E8109333
:10430000BD1488E490E1A0E0B0E08093BE149093E7
:10431000BF14A093C014B093C1140F94C72820E019
:1043200030E040E251E46091770270917802809130
:10433000790290917A020F94D7580F94BF607093CE
:10434000C7146093C6140093BA141093BD148AE482
:1043500090E1A0E0B0E08093BE149093BF14A093CE
:10436000C014B093C1140F94C72820E030E040E29D
:1043700051E460917B0270917C0280917D0290916A
:104380007E020F94D7580F94BF607093C714609348
:10439000C6140093BA141093BD148CE490E1A0E00D
:1043A000B0E08093BE149093BF14A093C014B09358
:1043B000C1140F94C7281092F509A4960FB6F8946B
:1043C000DEBF0FBECDBFDF91CF911F910F91FF9048
:1043D000EF90DF90CF90BF90AF909F908F907F90A5
:1043E0006F905F904F903F902F90089580915F085D
:1043F0008F5F80935F0892C985E096E00E94985491
:1044000080915D0890E0A0E0B0E0895B9F4FAE4FE7
:10441000B54A21E03AE53093C7142093C61490932F
:10442000C9148093C81487E08093BA1482E88093FB
:10443000BD1484E890E0A0E0B0E08093BE149093B7
:10444000BF14A093C014B093C1140F94C728109246
:104450005E0819CA81E0809356021092260F83E10C
:1044600096E00E94985481E09AE59093C714809357
:10447000C6148EE490E09093C9148093C81487E02A
:104480008093BA1482E88093BD1484E890E0A0E0A1
:10449000B0E08093BE149093BF14A093C014B09367
:1044A000C1140F94C728F1C98090040F9090050F94
:1044B000A090060FB090070F6091080F7091090F40
:1044C000072E000C880B990B0F9478582B013C0198
:1044D00020E030E040E050E40F94525FA5019401E9
:1044E0000F94B36118160CF4D9C120E030E0A90193
:1044F0006091D0127091D1128091D2129091D3120A
:104500000F94535F69A37AA38BA39CA36091D412E9
:104510007091D512072E000C880B990B0F947858C8
:104520006B017C0120E030E040E251E40F94525FE7
:1045300029A13AA14BA15CA10F94B36118160CF408
:10454000ADC18DC18CE090E09093C7148093C614E8
:1045500095E0F92EF092BA1482E88093BD1484E1BC
:1045600090E1A0E0B0E08093BE149093BF14A093BC
:10457000C014B093C1140F94C7280E94DB6E20E1D1
:104580003EE040E050E00F94C75E2115310581E028
:104590004807510560F05093C7144093C6143093F8
:1045A000C9142093C81487E08093BA1406C03093CE
:1045B000C7142093C614F092BA14F2E8FF2EF092BA
:1045C000BD1480E190E1A0E0B0E08093BE14909330
:1045D000BF14A093C014B093C1140F94C7280E94B5
:1045E000DB6E20E13EE040E050E00F94C75E2CE33C
:1045F00030E040E050E00F94C75E3093C714209342
:10460000C614A5E0EA2EE092BA14F092BD1482E13D
:1046100090E1A0E0B0E08093BE149093BF14A0930B
:10462000C014B093C1140F94C7280E94C27288238B
:1046300079F08F5F80935C08C82ED12C833308F00B
:10464000B3CACC0CDD1CD092C714C092C61404C0EF
:104650001092C7141092C614E092BA14F092BD14CE
:104660008EE090E1A0E0B0E08093BE149093BF1480
:10467000A093C014B093C1140F94C7281092C7140C
:104680001092C614B3CA20E030E0A9016091D012A4
:104690007091D1128091D2129091D3120F94535FE6
:1046A00020E030E048EC52E40F94D7586B017C01D5
:1046B0006091D4127091D512072E000C880B990BC3
:1046C0000F9478589B01AC01C701B6010F944D605F
:1046D0000F94C6606436710510F064E670E0709364
:1046E000C7146093C61435E0932E9092BA1442E832
:1046F000A42EA092BD1484E290E1A0E0B0E08093EB
:10470000BE149093BF14A093C014B093C1140F941F
:10471000C72820E030E0A9016091D0127091D11239
:104720008091D2129091D3120F94535F6B017C0150
:1047300020E030E04AE253E40F94B36118160CF025
:10474000EFC0BB2009F4ECC01092590820E030E023
:1047500040E251E4609151087091520880915308F1
:10476000909154080F94D7580F94BF607093C7145A
:104770006093C6149092BA14A092BD1484E590E19F
:10478000A0E0B0E08093BE149093BF14A093C01437
:10479000B093C1140F94C72820E030E040E251E408
:1047A000609155087091560880915708909158086B
:1047B0000F94D7580F94BF607093C7146093C614BA
:1047C0009092BA14A092BD1488E590E1A0E0B0E008
:1047D0008093BE149093BF14A093C014B093C114DF
:1047E0000F94C72881E296E00E94985481E09AE5F0
:1047F0009093C7148093C61481E490E09093C914F9
:104800008093C81487E08093BA14A092BD14D7C0D7
:1048100080915008FF24F394F80EF092500890E035
:104820009093C7148093C61485E08093BA1482E8ED
:104830008093BD1482E490E1A0E0B0E08093BE14C8
:104840009093BF14A093C014B093C1140F94C728C1
:10485000A9E0AF1508F0FACC10925008F7CC20E090
:1048600030E040E050E4C301B2010F94535FA50172
:1048700094010F94715887FD31C020E030E040E290
:1048800051E4C701B6010F94535F29A13AA14BA18E
:104890005CA10F94715887FD21C0D5C98DE090E0CF
:1048A0009093C7148093C61485E08093BA1482E86D
:1048B0008093BD1484E190E1A0E0B0E08093BE1449
:1048C0009093BF14A093C014B093C1140F94C72841
:1048D0008091250F811121C081E01FC084E190E00B
:1048E0009093C7148093C61485E08093BA1482E82D
:1048F0008093BD1484E190E1A0E0B0E08093BE1409
:104900009093BF14A093C014B093C1140F94C72800
:104910008091250F811101C082E08093250F93C9FA
:104920006091D4127091D512072E000C880B990B50
:104930000F9478589B01AC01C701B6010F94B36185
:1049400087FD80CC60915B08662309F47BCC062E42
:10495000000C770B80E397E00F94980B8AE00E949D
:104960007B5310925B0884E090E09093C71480938F
:10497000C61485E08093BA1482E8F82EF092BD1434
:104980008EE890E1A0E0B0E08093BE149093BF1455
:10499000A093C014B093C1140F94C72881E09AE586
:1049A0009093C7148093C61483E590E09093C91444
:1049B0008093C81487E08093BA14F092BD1484E801
:1049C00090E0A0E0B0E08093BE149093BF14A09359
:1049D000C014B093C1140F94C72834CC90916C14B8
:1049E00080910B15981353CC83E0E816F1040CF476
:1049F0004ECC90910C1590936A1480910D15809374
:104A00006D14933079F4982F9D7F903859F49091DC
:104A10000E159F3409F055C090910F159B3409F085
:104A200050C035CC833809F04CC080910E15909160
:104A30000F15982789279827A0E0B0E080936E147F
:104A400090936F14A0937014B0937114409110154B
:104A500050E060E070E040937214509373146093E0
:104A600074147093751481E1A82E85E1B82E80E04E
:104A700090E0DC0184179507A607B70708F04FC040
:104A80006C017D01F694E794D794C79496012A5F50
:104A90003F4FF901EE0FFF1F9F0126593B4E790151
:104AA000F501208130E0322F2227D1802D29F70116
:104AB000318320830296A11DB11DF2E0AF0EB11C1F
:104AC000D9CF813861F580910E1590E0A0E0B0E07B
:104AD00080936E1490936F14A0937014B09371141C
:104AE00080910F15482F50E060E070E04093721401
:104AF000509373146093741470937514A0E1B5E12E
:104B0000E6E7F4E190E020E030E02817390739F0DB
:104B10004D9150E0419351932F5F3F4FF6CF8AE183
:104B2000EAE0F5E1DF011D928A95E9F710924F085E
:104B300010924E0883EF93E00E9498546091260FE4
:104B4000161664F4062E000C770B85E297E00F949E
:104B5000980B8AE00E947B530C94EA35609176149E
:104B60007091771483E197E00F947A0B8AE00E94AA
:104B70007B5340916E1450916F146091701470913A
:104B8000711484E097E00F94690B8AE00E947B53D4
:104B900080916E1490916F14A0917014B091711463
:104BA000E9E8F2E0E12CF12C419151916191719190
:104BB000411551056105710509F442C048175907AF
:104BC0006A077B07C9F5AC01BD01477F42335041FD
:104BD00061057105C9F18433F0E19F07A105B105B5
:104BE00099F1811523E19207A105B10569F1AC01A5
:104BF000BD014850504161097109453051056105B9
:104C0000710530F1AC01BD01465450416109710993
:104C10004730510561057105F8F0AC01BD014455FF
:104C20005041610971094530510561057105B8F4BC
:104C300062E1E62EF12C13C03FEFE31AF30AB4CF82
:104C4000EE24EA94FE2C0BC0F8E0EF2EF12C07C006
:104C5000E3E0EE2EF12C03C07FE0E72EF12C82354D
:104C6000E2E19E07A105B10509F467C090F5823421
:104C700022E19207A105B10509F45FC0B0F48A33BF
:104C8000E2E19E07A105B10509F457C08E33F2E1B8
:104C90009F07A105B10509F450C0863322E19207B0
:104CA000A105B10509F04CC048C08A3432E1930730
:104CB000A105B10509F441C08E34E2E19E07A105CA
:104CC000B105D9F18634F2E19F07A105B105C1F51F
:104CD00034C08E3522E19207A105B10571F198F437
:104CE0008635E2E19E07A105B10539F18A35F2E189
:104CF0009F07A105B10509F1843522E19207A105BD
:104D0000B105F1F41AC0863632E19307A105B10569
:104D1000A1F038F48236F2E19F07A105B10581F4D4
:104D20000CC08A3622E19207A105B10531F0811548
:104D300033E19307A105B10519F458E0E52EF12CF4
:104D40008A509042A109B109833D9105A105B105A1
:104D500030F08FEFE816F80629F40C94EA3549E1B3
:104D6000E42EF12C84E194E00E949854B7010F2CBA
:104D7000000C880B990B0E94EF530E94925488EF0D
:104D800096E00E949854BAE1EB16F10410F00C94EE
:104D9000E635F7018827E758FF4F8F4F0D944A5F9C
:104DA000809176149091771481309105B1F410922E
:104DB00056028FEF80936A1960E080E00F94F2460C
:104DC00082E294E00E94985481E09AE59093C7149F
:104DD0008093C6148EE290E0D9C08230910509F02C
:104DE000BEC081E0809356020E943A7384EF96E041
:104DF00090931110809310108BE090E09093C71463
:104E00008093C61405E00093BA1412E81093BD1401
:104E100080E092E1A0E0B0E08093BE149093BF14D4
:104E2000A093C014B093C1140F94C7281092C71454
:104E30001092C6140093BA141093BD148EE090E142
:104E4000A0E0B0E08093BE149093BF14A093C01470
:104E5000B093C1140F94C7281092C7141092C614AF
:104E60000093BA141093BD148FE090E1A0E0B0E07D
:104E70008093BE149093BF14A093C014B093C11438
:104E80000F94C7281092C7141092C6140093BA1436
:104E90001093BD1486E190E1A0E0B0E08093BE14D1
:104EA0009093BF14A093C014B093C1140F94C7285B
:104EB00062E070E080E090E00F94E54B1092C71440
:104EC0001092C6140093BA141093BD1480E190E1BF
:104ED000A0E0B0E08093BE149093BF14A093C014E0
:104EE000B093C1140F94C7281092C7141092C6141F
:104EF0000093BA141093BD1482E190E1A0E0B0E0F9
:104F00008093BE149093BF14A093C014B093C114A7
:104F10000F94C7288AE494E00E94985481E09AE5AF
:104F20009093C7148093C6148DE290E09093C914B7
:104F30008093C81487E08093BA141093BD1484E85A
:104F400090E0A0E0B0E08093BE149093BF14A093D3
:104F5000C014B093C1140F94C7280C94EA35833061
:104F60009105F9F481E08093560282E794E00E9473
:104F7000985480910002882309F44BC381E09AE59C
:104F80009093C7148093C6148AE390E09093C91459
:104F90008093C81487E08093BA1482E88093BD148C
:104FA000CECF049711F00C94EA35109256020C946F
:104FB000EA35809176149091771481309105D1F47F
:104FC0001092560280910002882319F082E090E04E
:104FD00002C083E090E09093C7148093C61485E0EC
:104FE0008093BA1482E88093BD148EE190E1A0E032
:104FF000B0E0A9CF82309105E9F48AE994E00E94FB
:10500000985481E0809356028091250F843049F0B6
:1050100081E09AE59093C7148093C61485E390E0ED
:10502000B5CF81E09AE59093C7148093C61486E3C8
:1050300090E0ACCF8330910509F04CC02091000284
:10504000222319F19093C7148093C61485E08093AE
:10505000BA1482E88093BD148EE190E1A0E0B0E044
:105060008093BE149093BF14A093C014B093C11446
:105070000F94C72840E060E070E088EC92E40E9462
:10508000AE73109200020C94EA3582E090E09093A7
:10509000C7148093C61485E08093BA1482E8809385
:1050A000BD148EE190E1A0E0B0E08093BE14909337
:1050B000BF14A093C014B093C1140F94C72840E04C
:1050C00060E070E0CB010E94AE7381E0809300024B
:1050D0000C94EA35049711F00C94EA3580914C0851
:1050E0008823F1F082E090E09093C7148093C61477
:1050F00085E08093BA1482E88093BD148FE190E13B
:10510000A0E0B0E08093BE149093BF14A093C014AD
:10511000B093C1140F94C72810924C080C94EA3530
:1051200083E090E09093C7148093C61485E0809349
:10513000BA1482E88093BD148FE190E1A0E0B0E062
:105140008093BE149093BF14A093C014B093C11465
:105150000F94C72881E080934C080C94EA350091A5
:10516000761410917714B80180E090E00F9476588F
:105170006B017C0120E030E040E251E40F94715873
:1051800087FD0DC020E030E04AEF53E4C701B601CF
:105190000F94B361181634F0902F812F05C09AE058
:1051A00080E002C094EF81E090933002809331025E
:1051B0000C94EA3580916E1490916F14A091701444
:1051C000B09171148830E0E19E07A105B10509F0A6
:1051D00092C08FEB94E00E94985480917614909145
:1051E0007714803F910561F581E09AE59093C714AB
:1051F0008093C61485E390E09093C9148093C814FB
:1052000087E08093BA1482E88093BD1484E890E02C
:10521000A0E0B0E08093BE149093BF14A093C0149C
:10522000B093C1140F94C7286091761470917714CD
:105230008CEE96E00F947A0B8AE00E947B53EAC0D2
:1052400081E09AE59093C7148093C6148DE290E0B4
:105250009093C9148093C81487E08093BA1412E81D
:105260001093BD1484E890E0A0E0B0E08093BE14F9
:105270009093BF14A093C014B093C1140F94C72887
:105280001092C7141092C61405E00093BA1410933C
:10529000BD1480E190E1A0E0B0E08093BE14909353
:1052A000BF14A093C014B093C1140F94C7281092D8
:1052B000C7141092C6140093BA141093BD1482E15F
:1052C00090E1A0E0B0E08093BE149093BF14A0934F
:1052D000C014B093C1140F94C728609176147091D4
:1052E00077148DED96E00F947A0B8AE00E947B5341
:1052F0000E943A738FC08A30F0E19F07A105B10583
:10530000E1F58091761490917714813F910511F029
:105310000C94EA3581E09AE59093C7148093C61403
:1053200086E390E09093C9148093C81487E080933B
:10533000BA1482E88093BD1484E890E0A0E0B0E065
:105340008093BE149093BF14A093C014B093C11463
:105350000F94C72841E855E068E875E084E00F94B1
:10536000C72B60E08DE296E30E94F07287E795E03C
:1053700090931110809310104DC08C309041A10576
:10538000B10509F047C08091761490917714019788
:1053900009F040C00F94004C1092250F81E08093DB
:1053A00056028CE090E09093C7148093C61485E079
:1053B0008093BA1412E81093BD1484E190E1A0E048
:1053C000B0E08093BE149093BF14A093C014B09328
:1053D000C1140F94C72881E09AE59093C714809375
:1053E000C61485E390E09093C9148093C81487E0B5
:1053F0008093BA141093BD1484E890E0A0E0B0E06C
:105400008093BE149093BF14A093C014B093C114A2
:105410000F94C72880916E1490916F14A09170140E
:10542000B09171148C309041A105B10511F00C942C
:10543000EA358091761490917714029711F00C94CC
:10544000EA350F94004C81E080935B081092250FA1
:105450008093560281E09AE59093C7148093C61416
:1054600082E590E093CD2091761430917714B901C4
:1054700080E090E037FF09C00F94765820E030E0DC
:1054800040E857E40F94525F02C00F94765820E032
:1054900030E048EC52E40F944D606B017C0120E059
:1054A00030E040E151EC0F94B36187FD2DC020E066
:1054B00030E040E151E4C701B6010F94715818166D
:1054C0001CF1A70196016091E61C7091E71C809188
:1054D000E81C9091E91C0F94525F2091780E309156
:1054E000790E40917A0E50917B0E0F94D7589058B8
:1054F0000F94BF60CB010F9493468EEB95E0909391
:1055000011108093101028C020E030E048EC52E4E5
:105510006091E61C7091E71C8091E81C9091E91C59
:105520000F94D7580F94BF607093C7146093C6143C
:1055300085E08093BA1482E88093BD1486E290E1FE
:10554000A0E0B0E08093BE149093BF14A093C01469
:10555000B093C1140F94C7286091E61C7091E71CAA
:105560008091E81C9091E91C8E010B5E1F4F23E097
:1055700041E00F9442539F938F938FEC96E09F935B
:105580008F93045111091F930F930F940958C80169
:105590000E94B3A90F900F900F900F900F900F9053
:1055A0000C94EA358091761490917714009729F441
:1055B00081E0809356020C94EA3581309105B1F474
:1055C00080910002882349F081E09AE59093C71406
:1055D0008093C6148CE390E0D9CC81E09AE5909357
:1055E000C7148093C6148BE390E0D0CC8230910531
:1055F000F9F283309105F9F48091000240E08823AC
:1056000089F060E070E088EC92E40E94AE73109242
:10561000000281E09AE59093C7148093C61489E351
:1056200090E0B4CC60E070E0CB010E94AE7381E00A
:1056300080930002A3CC8530910559F540E060E0ED
:1056400070E084E393E40F94A34A46E060E070E0E6
:105650008CE892E40F94A34A84EB90E09093C714F3
:105660008093C61405E00093BA1412E81093BD1499
:1056700084E390E1A0E0B0E08093BE149093BF1467
:10568000A093C014B093C1140F94C72886E490E08F
:105690002DC08630910599F540E060E070E080E72C
:1056A00093E40F94A34A46E060E070E08CED92E44E
:1056B0000F94A34A80EF90E09093C7148093C61490
:1056C00005E00093BA1412E81093BD1484E390E14E
:1056D000A0E0B0E08093BE149093BF14A093C014D8
:1056E000B093C1140F94C7288EE690E09093C7142E
:1056F0008093C6140093BA141093BD14DBC0813F8D
:10570000910511F00C94EA3540E060E070E0CB01C7
:105710000E94AE7341E060E070E0CB010E94AE7386
:105720001092000240E060E070E0CB010F94A34AC9
:1057300046E060E070E0CB010F94A34A1092C714DA
:105740001092C61405E00093BA1412E81093BD1429
:1057500084E390E1A0E0B0E08093BE149093BF1486
:10576000A093C014B093C1140F94C72861E070E0F7
:1057700080E090E00F94E54B1092C7141092C6148D
:105780000093BA141093BD148AE390E1A0E0B0E056
:105790008093BE149093BF14A093C014B093C1140F
:1057A0000F94C72861E070E080E090E00F94E54B33
:1057B00084E190E09093C7148093C6140093BA14C8
:1057C0001093BD1484E190E1A0E0B0E08093BE149A
:1057D0009093BF14A093C014B093C1140F94C72822
:1057E00081E09AE59093C7148093C61489E390E012
:1057F0009093C9148093C81487E08093BA141093CF
:10580000BD1484E890E0A0E0B0E08093BE149093D3
:10581000BF14A093C014B093C1140F94C72882E0A2
:105820000C94E33589EC94E00E949854C0906E1477
:10583000D0906F14E0907014F09071142091761451
:105840003091771482E3C81680E1D806E104F104B0
:10585000B1F52115310509F48CCB21303105A9F4BE
:1058600040E060E070E0CB010F94A34A1092C714AF
:105870001092C61485E08093BA1482E88093BD1418
:1058800084E390E1A0E0B0E05ECB2230310511F07E
:105890000C94EA3546E060E070E0CB010F94A34A37
:1058A0001092C7141092C61485E08093BA1482E84F
:1058B0008093BD148AE390E1A0E0B0E044CB94E390
:1058C000C91690E1D906E104F10439F4B90180E088
:1058D00090E00F94765840E00DC0AAE3CA16A0E10C
:1058E000DA06E104F10451F4B90180E090E00F948C
:1058F000765846E00F94A34A0C94EA35C114B3E1FC
:10590000DB06E104F10421F5309384022093830245
:10591000B901330F880B990B0F9478582AE037EDB3
:1059200043E25CE30F94D7582091571730915817F2
:105930004091591750915A170F94D75860933A02D3
:1059400070933B0280933C0290933D020C94EA35A5
:10595000E2E5CE16E2E1DE06E104F10431F4309333
:105960000402209303020C94EA35F4E5CF16F2E129
:10597000DF06E104F10431F43093020220930102C6
:105980000C94EA35B90180E090E037FF09C00F942C
:10599000765820E030E040E857E40F94525F02C0B0
:1059A0000F94765820E030E048EC52E40F944D60BC
:1059B0004B015C0122E4C21622E1D206E104F104AB
:1059C00081F420E030E040E251E40F94D758609336
:1059D000700E7093710E8093720E9093730E0C94F0
:1059E000EA3536E4C31632E1D306E104F10481F46A
:1059F00020E030E040E251E40F94D7586093740EF9
:105A00007093750E8093760E9093770E0C94EA3512
:105A10008AE4C81682E1D806E104F10491F420E09A
:105A200030E040E251E4C501B4010F94D7586093CF
:105A3000780E7093790E80937A0E90937B0E0C946F
:105A4000EA359EE4C91692E1D906E104F10491F425
:105A500020E030E040E251E4C501B4010F94D75892
:105A600060937C0E70937D0E80937E0E90937F0EDC
:105A70000C94EA35A6E3CA16A2E1DA06E104F104C1
:105A800051F48092DE1C9092DF1CA092E01CB09238
:105A9000E11C0C94EA35BAE3CB16B2E1DB06E10473
:105AA000F10451F48092E21C9092E31CA092E41C59
:105AB000B092E51C0C94EA35EEE3CE16E2E1DE0688
:105AC000E104F10451F48092E61C9092E71CA0924C
:105AD000E81CB092E91C0C94EA35F6E5CF16F2E129
